:020000020000FC
:040000000C940B034E
:1001EC008AB1806E8AB984B1836084B98AB1837E06
:1001FC008AB98BB18C618BB901E804BD05E005BDF2
:10020C0000E007BD08952FEF81EE94E0215080406F
:10021C009040E1F70895212F2F70206312951F70E5
:10022C0010630895212F1F7000E31A3008F007E3C4
:10023C00100F22952F7000E32A3008F007E3200FEF
:10024C00089540E458EC6AEF000000006A95E1F76D
:10025C005A95C9F74A95B1F70895EAE8F2E0A8E093
:10026C00B1E02FE225903590239502191309E0F7A0
:10027C00020D131D2D93C895002099F70895102792
:10028C00E80364000A0001000000080141E12218A3
:10029C003324001C111C4A9559F0221C331C221AC1
:1002AC00330A20F4220E331E8894F3CF0894F1CF36
:1002BC00089549E02218002E001C4A9541F0221C9A
:1002CC00221A18F4220E8894F7CF0894F5CF0895CB
:1002DC0040E04093C50047E64093C40048E140939A
:1002EC00C10046E04093C20008954091C00045FF14
:1002FC000C947B010093C60008954091C00047FF09
:10030C00FCCF6091C6000895013031F001910030AE
:10031C0049F0EBDF0C948C010591003019F0E5DF0E
:10032C000C9492010895E9DF6D3019F430E03C93A0
:10033C0008956C93062FD9DF683049F4AA95B04024
:10034C0000E20E947B0108E0D0DF0C949901A39598
:10035C0040E0B41FE8CF08950DE00E947B010AE055
:10036C000E947B01089580E480937C0087E8809351
:10037C007A000895ECE7F0E090818770987F892BE4
:10038C008083EAE7F0E0808180648083808186FD51
:10039C000C94CC018091780090917900089550E0F4
:1003AC005093B90058E45093B80054E05093BC00FB
:1003BC00089544EA4093BC00ECEBF0E04081442308
:1003CC00ECF77093BB0084E88093BC00ECEBF0E09E
:1003DC0080818823ECF74091B900487B81E048315B
:1003EC0009F080E008950E94DF01089584E980936C
:1003FC00BC00089554E85093BC005091BC0057FFCA
:10040C00FCCFB091BB00089584EC8093BC00ECEB66
:10041C00F0E080818823ECF78091BB00089584E89C
:10042C008093BC00ECEBF0E080818823ECF78091AA
:10043C00BB0008958093BB0084E88093BC00CCEB98
:10044C00D0E088818823ECF74091B90081E04632F6
:10045C0009F480E008950E94F901892F0E9420027E
:10046C00862F0E9420020E94FC010895672F0E9493
:10047C00F901892F0E94200271E0760F0E94F90188
:10048C000E941502682F0E94FC01862F08950E947D
:10049C00F901892F0E942002209739F0F8018191EF
:1004AC008F010E9420022197C9F70E94FC01089538
:1004BC0070ED0E94F90170ED97E060E00E9431024E
:1004CC00089570ED0E943C02089570EE0E94F901AF
:1004DC0081E20E9420020E94FC010E94F90181E845
:1004EC000E9420020E94FC010E94F90185EE0E94EC
:1004FC0020020E94FC0100E210E00E94920200E245
:10050C0011E00E94920200E212E00E94920200E2CC
:10051C0013E00E9492020895E6E5F5E00052000F08
:10052C00E00F00E0F01F2591349170EE0E94F9016C
:10053C00812F880F0E942002822F0E942002832F7D
:10054C000E9420020E94FC01089500000600200277
:10055C00CE12ED12240C5D23000400240009C03FD0
:10056C00C0120008C0000000000C3F000600DB00B9
:10057C00CF00E600ED00FD000700FF00EF000012C9
:10058C00000A0024C80000098310BB02F7008F1278
:10059C0039000F12F9007100BD00F60000121E00A8
:1005AC0070243800360536213F00F3003F20F3203D
:1005BC00ED0001123E00300C3628002D0015090C00
:1005CC00390000210F00030C08000001581078209E
:1005DC00D8008E08580871008E04701000100E00A0
:1005EC0000363000D4105010DC007001860450002E
:1005FC00882078001C0004201428C0280C204808EF
:10060C004909001289242005FF3F08E00EBF0FEFB7
:10061C000DBF0E94F6000E946E010E94B9010E945B
:10062C00D5010E945E020E946B020C9457030E943B
:10063C009B034B9B0C9468035F984C9903C05D9A89
:10064C000C944003809100014A990C9436035D9AF6
:10065C008330C1F18130E1F08430D1F08030C1F0D1
:10066C000E94BE0380910001833009F39130F9F2AE
:10067C000C94710381E08093000128985F9800E04E
:10068C0007BD80E080930501809306010C941D0347
:10069C0083E080930001289A5F9803E207BD0C94D5
:1006AC001D0380E08093000180E08093070180931C
:1006BC00060180E08093050128985F9800E007BD53
:1006CC000C941D0384E08093000128985F9A00E04D
:1006DC0007BD0C941D0382E08093000128985F985D
:1006EC0000E007BDA0910501B091060150910201F7
:1006FC00573838F4B03011F4A03021F01A970C941C
:10070C0088031A96A0930501B09306010E94DD039D
:10071C000E9427010E94BE03509104015030D9F26F
:10072C0084E0809300010C941D030E9409015D98E4
:10073C00609107016A30B9F460E060930701709131
:10074C000001733071F4A0910501B0910601A395DD
:10075C00119711F40C9440031197A0930501B093D9
:10076C0006010E94DD036091070163956093070108
:10077C0080E00E94C0019295990F990F86958695FD
:10078C00892B8093030181E00E94C0019295990FFF
:10079C00990F86958695892B8093020190E083377B
:1007AC0018F0873808F491E09093040108950E94A2
:1007BC00B201E8EFF8E001E00E948A010E94F80320
:1007CC00E0E0F9E001E00E948A010E943A04EEE0C8
:1007DC00F9E001E00E948A010091000100630E948F
:1007EC007B01089592E00E946702182F0E9411016C
:1007FC00012F0E947B01022F0E947B010AE30E94C1
:10080C007B0191E00E946702182F0E941101012FB9
:10081C000E947B01022F0E947B018091000183309A
:10082C0011F1843001F18230F1F092E00E94670204
:10083C00182F0E941101012FE22E10E00E9492024B
:10084C000E2D11E00E94920291E00E946702182F77
:10085C000E941101012FE22E12E00E9492020E2D35
:10086C0013E00E9492020895009105011091060177
:10087C000E94330180E080930D0180930E018093E0
:10088C000F01E8E0F1E000E00E948A018091000194
:10089C00833029F0843019F0823009F008950091EA
:1008AC000501109106012CE330E00E944B01A02CB5
:1008BC00B22C0A2D2AE00E945F0100E3000D10E02B
:1008CC000E94920200E3020D11E00E9492020B2D95
:1008DC002AE00E945F0100E3000D12E00E949202E8
:1008EC0000E3020D13E00E949202089554696D65B5
:1008FC003A20000020436F6F6B2054696D653A20DD
:0C090C0000002053746174653A20000064
:00000001FF
